:020000040800F2
:100000006806002089010008CB050008C305000828
:10001000C70500089D040008910A000800000000C0
:10002000000000000000000000000000410900087E
:10003000A104000800000000050900082D0A0008BE
:10004000A3010008A3010008A3010008A301000800
:10005000A3010008A3010008A3010008A3010008F0
:10006000A3010008A3010008A3010008A3010008E0
:10007000A3010008A3010008A3010008A3010008D0
:10008000A3010008A3010008A3010008A3010008C0
:10009000A3010008A3010008A3010008A3010008B0
:1000A000A3010008A3010008A3010008A3010008A0
:1000B000A3010008A3010008A3010008A301000890
:1000C000A3010008A3010008A3010008A301000880
:1000D000A3010008A3010008A3010008A301000870
:1000E000A3010008A3010008A301000800F002F822
:1000F00000F03AF80AA090E8000C82448344AAF188
:100100000107DA4501D100F02FF8AFF2090EBAE885
:100110000F0013F0010F18BFFB1A43F0010318473B
:10012000A00F0000C00F0000103A24BF78C878C1AB
:10013000FAD8520724BF30C830C144BF04680C60ED
:10014000704700000023002400250026103A28BF35
:1001500078C1FBD8520728BF30C148BF0B60704739
:100160001FB51FBD10B510BD00F031F81146FFF7E7
:10017000F7FF00F08FFC00F04FF803B4FFF7F2FF39
:1001800003BC00F057F800000948804709480047C1
:10019000FEE7FEE7FEE7FEE7FEE7FEE7FEE7FEE737
:1001A000FEE7FEE704480549054A064B7047000094
:1001B000310A0008ED0000086800002068060020F1
:1001C000680200206802002070477047704775463B
:1001D00000F02CF8AE4605006946534620F00700B3
:1001E000854618B020B5FFF7DDFFBDE820404FF091
:1001F00000064FF000074FF000084FF0000B21F011
:100200000701AC46ACE8C009ACE8C009ACE8C009DD
:10021000ACE8C0098D46704710B50446AFF30080C6
:100220002046BDE81040FFF7A8BF00000048704717
:100230000400002001491820ABBEFEE726000200A2
:10024000704721B1826842F00102826003E0826857
:1002500022F0010282607047014600208A6802F0A5
:1002600004020AB1012000E0002070470146C86C7A
:1002700080B270470246002013680B400BB101208A
:1002800000E000207047014600208A6802F0080262
:100290000AB1012000E000207047000030B502469E
:1002A0000020002350680F4C20400D790C6844EA70
:1002B00005242043506090680B4C2040D1E9025443
:1002C0002C434D7944EA450420439060D06A20F4E1
:1002D00070000C7C641EE4B2234340EA0350D062F9
:1002E00030BD0000FFFEF0FFFDF7F1FFF0B5044662
:1002F0000D4600200021092D11DDE068A5F10A0658
:1003000006EB4607072606FA07F18843A5F10A0619
:1003100006EB460603FA06F10843E0600CE02069AC
:1003200005EB4507072606FA07F1884305EB450666
:1003300003FA06F108432061072A0FDA606B561EA4
:1003400006EB86071F2606FA07F18843561E06EBC2
:10035000860605FA06F10843606322E00D2A0FDAEB
:10036000206BD61F06EB86071F2606FA07F1884387
:10037000D61F06EB860605FA06F10843206310E057
:10038000E06AA2F10D0606EB86071F2606FA07F1C2
:100390008843A2F10D0606EB860605FA06F108432E
:1003A000E062F0BD816841F008018160704721B1D1
:1003B000826842F4A002826003E0826822F4A00214
:1003C00082607047816841F00401816070470000DD
:1003D00010B501210648FFF7EAFF00BF02210448DB
:1003E000FFF748FF0028F9D00148FFF73FFF10BD95
:1003F0000024014000B587B00121480200F090FAC6
:100400000121042000F08CFA4FF4004000F07CFA47
:100410000121042000F084FA00208DF81B00012047
:10042000ADF8180003208DF81A0006A9194800F04D
:1004300038F80523012200211748FFF757FF002055
:10044000019004904FF46020039000208DF8090083
:100450008DF8080001208DF8140001A90E48FFF75F
:100460001DFF01210C48FFF7ECFE0B48FFF79AFF38
:1004700000BF0948FFF707FF0128FAD00648FFF739
:10048000A1FF00BF0448FFF7E7FE0128FAD007B03C
:1004900000BD0000000801400024014000BFFEE74D
:1004A00070472DE9F0410246002500260020002378
:1004B0000024002791F803C00CF00F0591F803C049
:1004C0000CF0100CBCF1000F03D091F802C04CEA04
:1004D000050591F800C0BCF1000F31D01468002070
:1004E0002BE04FF0010C0CFA00F3B1F800C00CEA5D
:1004F00003069E4220D183004FF00F0C0CFA03F745
:10050000BC4305FA03FC4CEA040491F803C0BCF1B7
:10051000280F06D14FF0010C0CFA00FCC2F814C0F1
:100520000AE091F803C0BCF1480F05D14FF0010C6F
:100530000CFA00FCC2F810C0401C0828D1D314608B
:10054000B1F800C0BCF1FF0F34DD546800202EE08C
:1005500000F1080C4FF0010808FA0CF3B1F800C0E4
:100560000CEA03069E4221D183004FF00F0C0CFAD7
:1005700003F7BC4305FA03FC4CEA040491F803C0FA
:10058000BCF1280F05D100F1080C08FA0CF8C2F8EC
:10059000148091F803C0BCF1480F07D100F1080C9A
:1005A0004FF0010808FA0CF8C2F81080401C082827
:1005B000CED35460BDE8F0810AB1016100E0416131
:1005C000704700BFFEE700BFFEE7704770B500242C
:1005D0000EE00021204600F0F4F8002504E00020A1
:1005E00000F080F9681CC5B2802DF8DB601CC4B235
:1005F000082CEEDB70BD000008B50121082000F0DA
:100600008FF914208DF8030003208DF802004FF4B9
:100610008070ADF8000069460A48FFF742FF4FF4CA
:100620000070ADF8000069460648FFF73AFF012266
:1006300011020448FFF7C0FF012251020148FFF7F1
:10064000BBFF08BD000C014070B50546002419E051
:1006500080202041284008B1012000E0002002460F
:100660004FF400710E48FFF7A7FF012211020C485A
:10067000FFF7A2FF00224FF480710948FFF79CFFAB
:10068000601CC4B2082CE3DB012211020448FFF70E
:1006900093FF00224FF480710148FFF78DFF70BD7A
:1006A000000C014010B5012251020A48FFF784FFF7
:1006B000012211020748FFF77FFF00224FF400716B
:1006C0000448FFF779FF00224FF480710148FFF7DB
:1006D00073FF10BD000C014010B500224FF40071F3
:1006E0000648FFF769FF012211020448FFF764FF83
:1006F000012251020148FFF75FFF10BD000C0140CD
:1007000070B5002406E0002500E06D1CB5F57A7F89
:10071000FBD3641CB4F57A7FF5D3FFF76DFFAE20F1
:1007200000F0D0F8D52000F0CDF8802000F0CAF815
:10073000A82000F0C7F83F2000F0C4F8D32000F054
:10074000C1F8002000F0BEF8402000F0BBF8A12066
:1007500000F0B8F8C82000F0B5F8DA2000F0B2F8E0
:10076000122000F0AFF8812000F0ACF8CF2000F0AC
:10077000A9F8D92000F0A6F8F12000F0A3F8DB20BA
:1007800000F0A0F8302000F09DF8A42000F09AF8C6
:10079000A62000F097F88D2000F094F8142000F0C7
:1007A00091F8AF2000F08EF8FFF710FF70BD10B584
:1007B0000246012000E050430B1EA1F10101FAD1D5
:1007C00010BD70B505460C4645F0B00000F07AF853
:1007D000102141EA141000F075F804F00F0000F049
:1007E00071F870BD2DE9F04105460E461746721EA0
:1007F000D206110E6A1E5206100EFFF7E2FF002409
:1008000009E0A7F12001134A02EB0111085D00F095
:1008100069F8601CC4B2082CF3DB721ED206110EFC
:100820006A1E012303EB4202D0B2FFF7CAFF002485
:100830000BE0A7F12001074A02EB011204F10801C5
:10084000505C00F04FF8601CC4B2082CF1DBBDE82E
:10085000F0810000D00A00082DE9F04780460E46DE
:1008600017461D46002415E0281B411E0A20FFF7ED
:100870009EFFB7FBF0F00A21B0FBF1F201FB120082
:1008800000F130093019C1B24A464046FFF7AAFFCD
:10089000601CC4B2AC42E7DBBDE8F0872DE9F04153
:1008A00007460E461546002407E02A5D3019C1B2FE
:1008B0003846FFF797FF601CC4B2285D0028F4D1CA
:1008C000BDE8F08110B50446FFF7ECFE7820FFF795
:1008D000BBFE0020FFF7B8FE2046FFF7B5FEFFF78E
:1008E000FBFE10BD10B50446FFF7DCFE7820FFF7D5
:1008F000ABFE4020FFF7A8FE2046FFF7A5FEFFF75E
:10090000EBFE10BD7047000001460020034A50680E
:1009100020F440400843506070470000001002403F
:1009200029B1064A92690243044B9A6104E0034AE2
:1009300092698243014B9A617047000000100240A7
:10094000704710B500F002F810BD00000CB5002093
:10095000019000903348006840F4803031490860CD
:1009600000BF3048006800F4003000900198401C3F
:100970000190009818B90198B0F5A06FF1D12948FD
:10098000006800F4003010B10120009001E0002068
:1009900000900098012843D12348006840F01000DF
:1009A000214908600846006820F0030008600846F6
:1009B000006840F0020008601A4840681949486021
:1009C0000846406848600846406840F480604860D7
:1009D0000846406820F47C1048600846406840F4AF
:1009E000E81048600846006840F08070086000BF6A
:1009F0000C48006800F000700028F9D009484068F1
:100A000020F00300074948600846406840F00200B3
:100A1000486000BF0348406800F00C000828F9D186
:100A20000CBD000000100240002002407047000092
:100A300010B51348006840F00100114908600846ED
:100A40004068104908400E494860084600680E4951
:100A500008400B4908600846006820F480200860C0
:100A60000846406820F4FE0048604FF41F0088608C
:100A7000FFF767FF4FF000600449086010BD0000F9
:100A8000001002400000FFF8FFFFF6FE08ED00E056
:100A900000BFFEE7FFF734FEFFF7ACFC08A2012120
:100AA0000846FFF7FBFE0AE0FFF792FC07490880C3
:100AB00004230846028809210120FFF7CDFEF3E751
:100AC000414476616C75653A00000000000000202A
:100AD0000000000000000000000000000000000016
:100AE000000000F8000000000000003330000000AB
:100AF00000100C06100C06000000000000000000B2
:100B000040C07840C0784000043F04043F04040023
:100B1000007088FC08300000001820FF211E000033
:100B2000F008F000E018000000211C031E211E0048
:100B300000F00888700000001E21232419272110CE
:100B400010160E0000000000000000000000000071
:100B5000000000E018040200000000071820400018
:100B600000020418E0000000004020180700000008
:100B7000404080F0804040000202010F010202006C
:100B8000000000F0000000000101011F0101010050
:100B9000000000000000000080B0700000000000B5
:100BA000000000000000000000010101010101013E
:100BB00000000000000000000030300000000000D5
:100BC00000000000806018040060180601000000AA
:100BD00000E010080810E000000F102020100F00A7
:100BE000001010F8000000000020203F202000002E
:100BF0000070080808887000003028242221300086
:100C000000300888884830000018202020110E008D
:100C10000000C02010F8000000070424243F240036
:100C200000F80888880808000019212020110E000B
:100C300000E0108888180000000F112020110E001D
:100C400000380808C83808000000003F0000000015
:100C50000070880808887000001C222121221C00D6
:100C600000E010080810E0000000312222110F00FF
:100C7000000000C0C0000000000000303000000094
:100C80000000008000000000000080600000000004
:100C9000000080402010080000010204081020001D
:100CA0004040404040404000040404040404040068
:100CB00000081020408000000020100804020100FD
:100CC000007048080808F0000000003036010000FD
:100CD000C030C828E810E0000718272423140B00B0
:100CE0000000C038E0000000203C2302022738202A
:100CF00008F8888888700000203F202020110E000E
:100D0000C030080808083800071820202010080004
:100D100008F808080810E000203F202020100F00ED
:100D200008F88888E8081000203F202023201800B9
:100D300008F88888E8081000203F20000300000021
:100D4000C03008080838000007182020221E0200C2
:100D500008F808000008F808203F210101213F2081
:100D6000000808F8080800000020203F20200000AC
:100D700000000808F8080800C08080807F0000009C
:100D800008F888C028180800203F200126382000D5
:100D900008F8080000000000203F2020202030003C
:100DA00008F8F800F8F80800203F003F003F200056
:100DB00008F830C00008F808203F200007183F005E
:100DC000E01008080810E0000F10202020100F008D
:100DD00008F808080808F000203F21010101000080
:100DE000E01008080810E0000F18242438504F00C5
:100DF00008F8888888887000203F2000030C302085
:100E000000708808080838000038202121221C00C2
:100E1000180808F8080818000000203F200000000B
:100E200008F808000008F808001F202020201F00F4
:100E30000878880000C83808000007380E01000054
:100E4000F80800F80008F800033C0700073C03001E
:100E5000081868808068180820302C03032C302084
:100E60000838C800C83808000000203F20000000F3
:100E700010080808C838080020382621202018004B
:100E8000000000FE020202000000007F404040001F
:100E9000000C30C000000000000000010638C00057
:100EA00000020202FE000000004040407F000000FF
:100EB0000000040202020400000000000000000024
:100EC0000000000000000000808080808080808022
:100ED000000202040000000000000000000000000A
:100EE00000008080808000000019242222223F2000
:100EF00008F8008080000000003F112020110E0043
:100F00000000008080800000000E112020201100D1
:100F1000000000808088F800000E112020103F2083
:100F20000000808080800000001F22222222130007
:100F3000008080F0888888180020203F2020000052
:100F40000000808080808000006B94949493600007
:100F500008F8008080800000203F210000203F2012
:100F600000809898000000000020203F2020000012
:100F7000000000809898000000C08080807F000002
:100F800008F8000080808000203F24022D302000DF
:100F9000000808F8000000000020203F202000008A
:100FA0008080808080808000203F20003F20003FA4
:100FB0008080008080800000203F210000203F20B2
:100FC0000000808080800000001F202020201F0063
:100FD000808000808000000080FFA12020110E0092
:100FE0000000008080808000000E112020A0FF8083
:100FF000808080008080800020203F212000010030
:101000000000808080808000003324242424190084
:10101000008080E0808000000000001F2020000091
:101020008080000000808000001F202020103F20D2
:10103000808080000080808000010E300806010062
:1010400080800080008080800F300C030C300F0007
:1010500000808000808080000020312E0E31200032
:10106000808080000080808080818E701806010062
:1010700000808080808080000021302C2221300080
:1010800000000000807C020200000000003F4040A1
:1010900000000000FF00000000000000FF00000052
:1010A0000002027C800000000040403F0000000081
:1010B000000601010202040400000000000000001C
:1010C000E0100008000000200400000028010008D3
:1010D000E410000804000020640600004401000839
:0410E000000000000C
:04000005080000ED02
:00000001FF
